{
  "contractName": "Hero",
  "abi": [
    {
      "inputs": [
        {
          "internalType": "string",
          "name": "_hero",
          "type": "string"
        }
      ],
      "stateMutability": "nonpayable",
      "type": "constructor"
    },
    {
      "inputs": [
        {
          "internalType": "string",
          "name": "_hero",
          "type": "string"
        }
      ],
      "name": "setHero",
      "outputs": [],
      "stateMutability": "nonpayable",
      "type": "function"
    },
    {
      "inputs": [],
      "name": "getHero",
      "outputs": [
        {
          "internalType": "string",
          "name": "",
          "type": "string"
        }
      ],
      "stateMutability": "view",
      "type": "function"
    }
  ],
  "bytecode": "0x60806040523480156200001157600080fd5b5060405162000d2c38038062000d2c833981810160405281019062000037919062000223565b336000806101000a81548173ffffffffffffffffffffffffffffffffffffffff021916908373ffffffffffffffffffffffffffffffffffffffff1602179055508060019081620000889190620004bf565b5050620005a6565b6000604051905090565b600080fd5b600080fd5b600080fd5b600080fd5b6000601f19601f8301169050919050565b7f4e487b7100000000000000000000000000000000000000000000000000000000600052604160045260246000fd5b620000f982620000ae565b810181811067ffffffffffffffff821117156200011b576200011a620000bf565b5b80604052505050565b60006200013062000090565b90506200013e8282620000ee565b919050565b600067ffffffffffffffff821115620001615762000160620000bf565b5b6200016c82620000ae565b9050602081019050919050565b60005b83811015620001995780820151818401526020810190506200017c565b60008484015250505050565b6000620001bc620001b68462000143565b62000124565b905082815260208101848484011115620001db57620001da620000a9565b5b620001e884828562000179565b509392505050565b600082601f830112620002085762000207620000a4565b5b81516200021a848260208601620001a5565b91505092915050565b6000602082840312156200023c576200023b6200009a565b5b600082015167ffffffffffffffff8111156200025d576200025c6200009f565b5b6200026b84828501620001f0565b91505092915050565b600081519050919050565b7f4e487b7100000000000000000000000000000000000000000000000000000000600052602260045260246000fd5b60006002820490506001821680620002c757607f821691505b602082108103620002dd57620002dc6200027f565b5b50919050565b60008190508160005260206000209050919050565b60006020601f8301049050919050565b600082821b905092915050565b600060088302620003477fffffffffffffffffffffffffffffffffffffffffffffffffffffffffffffffff8262000308565b62000353868362000308565b95508019841693508086168417925050509392505050565b6000819050919050565b6000819050919050565b6000620003a06200039a62000394846200036b565b62000375565b6200036b565b9050919050565b6000819050919050565b620003bc836200037f565b620003d4620003cb82620003a7565b84845462000315565b825550505050565b600090565b620003eb620003dc565b620003f8818484620003b1565b505050565b5b81811015620004205762000414600082620003e1565b600181019050620003fe565b5050565b601f8211156200046f576200043981620002e3565b6200044484620002f8565b8101602085101562000454578190505b6200046c6200046385620002f8565b830182620003fd565b50505b505050565b600082821c905092915050565b6000620004946000198460080262000474565b1980831691505092915050565b6000620004af838362000481565b9150826002028217905092915050565b620004ca8262000274565b67ffffffffffffffff811115620004e657620004e5620000bf565b5b620004f28254620002ae565b620004ff82828562000424565b600060209050601f83116001811462000537576000841562000522578287015190505b6200052e8582620004a1565b8655506200059e565b601f1984166200054786620002e3565b60005b8281101562000571578489015182556001820191506020850194506020810190506200054a565b868310156200059157848901516200058d601f89168262000481565b8355505b6001600288020188555050505b505050505050565b61077680620005b66000396000f3fe608060405234801561001057600080fd5b50600436106100365760003560e01c80631a126e141461003b578063581bee2f14610057575b600080fd5b61005560048036038101906100509190610302565b610075565b005b61005f610116565b60405161006c91906103ca565b60405180910390f35b60008054906101000a900473ffffffffffffffffffffffffffffffffffffffff1673ffffffffffffffffffffffffffffffffffffffff163373ffffffffffffffffffffffffffffffffffffffff1614610103576040517f08c379a00000000000000000000000000000000000000000000000000000000081526004016100fa90610438565b60405180910390fd5b8060019081610112919061066e565b5050565b60606001805461012590610487565b80601f016020809104026020016040519081016040528092919081815260200182805461015190610487565b801561019e5780601f106101735761010080835404028352916020019161019e565b820191906000526020600020905b81548152906001019060200180831161018157829003601f168201915b5050505050905090565b6000604051905090565b600080fd5b600080fd5b600080fd5b600080fd5b6000601f19601f8301169050919050565b7f4e487b7100000000000000000000000000000000000000000000000000000000600052604160045260246000fd5b61020f826101c6565b810181811067ffffffffffffffff8211171561022e5761022d6101d7565b5b80604052505050565b60006102416101a8565b905061024d8282610206565b919050565b600067ffffffffffffffff82111561026d5761026c6101d7565b5b610276826101c6565b9050602081019050919050565b82818337600083830152505050565b60006102a56102a084610252565b610237565b9050828152602081018484840111156102c1576102c06101c1565b5b6102cc848285610283565b509392505050565b600082601f8301126102e9576102e86101bc565b5b81356102f9848260208601610292565b91505092915050565b600060208284031215610318576103176101b2565b5b600082013567ffffffffffffffff811115610336576103356101b7565b5b610342848285016102d4565b91505092915050565b600081519050919050565b600082825260208201905092915050565b60005b8381101561038557808201518184015260208101905061036a565b60008484015250505050565b600061039c8261034b565b6103a68185610356565b93506103b6818560208601610367565b6103bf816101c6565b840191505092915050565b600060208201905081810360008301526103e48184610391565b905092915050565b7f4e6f7420746865206f776e657200000000000000000000000000000000000000600082015250565b6000610422600d83610356565b915061042d826103ec565b602082019050919050565b6000602082019050818103600083015261045181610415565b9050919050565b7f4e487b7100000000000000000000000000000000000000000000000000000000600052602260045260246000fd5b6000600282049050600182168061049f57607f821691505b6020821081036104b2576104b1610458565b5b50919050565b60008190508160005260206000209050919050565b60006020601f8301049050919050565b600082821b905092915050565b60006008830261051a7fffffffffffffffffffffffffffffffffffffffffffffffffffffffffffffffff826104dd565b61052486836104dd565b95508019841693508086168417925050509392505050565b6000819050919050565b6000819050919050565b600061056b6105666105618461053c565b610546565b61053c565b9050919050565b6000819050919050565b61058583610550565b61059961059182610572565b8484546104ea565b825550505050565b600090565b6105ae6105a1565b6105b981848461057c565b505050565b5b818110156105dd576105d26000826105a6565b6001810190506105bf565b5050565b601f821115610622576105f3816104b8565b6105fc846104cd565b8101602085101561060b578190505b61061f610617856104cd565b8301826105be565b50505b505050565b600082821c905092915050565b600061064560001984600802610627565b1980831691505092915050565b600061065e8383610634565b9150826002028217905092915050565b6106778261034b565b67ffffffffffffffff8111156106905761068f6101d7565b5b61069a8254610487565b6106a58282856105e1565b600060209050601f8311600181146106d857600084156106c6578287015190505b6106d08582610652565b865550610738565b601f1984166106e6866104b8565b60005b8281101561070e578489015182556001820191506020850194506020810190506106e9565b8683101561072b5784890151610727601f891682610634565b8355505b6001600288020188555050505b50505050505056fea264697066735822122073b1046cd2c38f44e0d39d1c76c3b3741cff57833abef485e96a58db1ee7349464736f6c63430008110033",
  "immutableReferences": {},
  "source": "// SPDX-License-Identifier: UNLICENSED\npragma solidity >=0.7.0 <0.9.0;\n\ncontract Hero{\n    address owner;\n    string hero;\n    constructor(string memory _hero)\n    {\n        owner=msg.sender;\n        hero=_hero;\n    }\n    \n    function setHero(string memory _hero)public\n    {\n        require(msg.sender==owner,\"Not the owner\");\n        hero =_hero;\n    }\n    function getHero() public view returns(string memory)\n    {\n        return hero;\n    }\n    \n}",
  "sourcePath": "/workspace/solidity-truffle/contracts/hero.sol",
  "compiler": {
    "name": "solc",
    "version": "0.8.17+commit.8df45f5f.Emscripten.clang"
  },
  "schemaVersion": "3.4.10",
  "updatedAt": "2022-10-17T00:33:10.013Z",
  "devdoc": {
    "kind": "dev",
    "methods": {},
    "version": 1
  },
  "userdoc": {
    "kind": "user",
    "methods": {},
    "version": 1
  }
}